:020000040800F2
:1000000060060020450200084D0200084F0200086B
:1000100051020008530200085502000800000000C9
:10002000000000000000000000000000570200086F
:1000300059020008000000005B0200085D02000891
:100040005F0200085F0200085F0200085F0200080C
:100050005F0200085F0200085F0200085F020008FC
:100060005F0200085F0200085F0200085F020008EC
:100070005F0200085F0200085F0200085F020008DC
:100080005F0200085F0200085F0200080000000035
:100090000000000000000000000000005F020008F7
:1000A0005F0200085F0200085F0200085F020008AC
:1000B0005F0200085F0200085F0200085F0200089C
:1000C0005F0200085F0200085F0200085F0200088C
:1000D0005F0200085F0200085F02000800000000E5
:1000E0005F0200085F0200085F02000800000000D5
:1000F0000000000000000000000000005F02000897
:10010000000000005F0200085F0200085F020008B4
:1001100000000000000000000000000000000000DF
:100120005F0200085F0200085F0200085F0200082B
:100130005F02000800000000000000000000000056
:100140000000000000000000000000005F02000846
:100150005F0200085F0200085F0200085F020008FB
:100160005F0200085F0200080000000000000000BD
:10017000000000000000000000000000000000007F
:10018000000000005F020008000000000000000006
:100190005F02000800F002F800F044F814A696E8A8
:1001A000000CB244B344DA4501D100F03BF8BAE8A0
:1001B0000F000FA696E83000A5EB040504EB060738
:1001C000AAEB0704A7F101074FEA15154FEA34140B
:1001D000A4F10104AC4201D300F024F813F0010FA4
:1001E00018BFFB1A43F0010300F001F8DBE71847E2
:1001F0005C0200006C020000704700000023002435
:1002000000250026103A28BF78C1FBD8520728BF26
:1002100030C148BF0B6070471FB500F004F91FBD27
:1002200010B510BD00F031F81146FFF7F5FF00F0F2
:10023000ABF800F04FF803B4FFF7F2FF03BC00F097
:1002400057F800000948804709480047FEE7FEE7E5
:10025000FEE7FEE7FEE7FEE7FEE7FEE7FEE7FEE776
:1002600004480549054A064B704700000103000891
:100270009501000860000020600600206002002058
:1002800060020020704770477047754600F02CF8F8
:10029000AE4605006946534620F00700854618B073
:1002A00020B5FFF7DDFFBDE820404FF000064FF01E
:1002B00000074FF000084FF0000BAC46ACE8C00957
:1002C000ACE8C009ACE8C009ACE8C00921F00701FE
:1002D0008D46704710B50446AFF300802046BDE858
:1002E0001040FFF7A8BF0000004870470000002042
:1002F00001491820ABBEFEE726000200704700004F
:100300004EF68851CEF20001086840F47000086093
:1003100043F60002C4F20202106840F001001060CF
:1003200043F60801C4F202010020086011684FF68C
:10033000FF73CFF6F6631940116043F60403C4F26D
:10034000020343F21001C2F200411960116821F466
:100350008021116043F60C01C4F2020108604EF6E0
:100360000851CEF200014FF00060086070470000B5
:1003700081B00090FFE70098411E009108B1FFE7AF
:10038000F9E701B07047000080B584B00020039009
:1003900043F63001C4F202010860086840F0010031
:1003A00008600021C4F2020101914FF0284008606A
:1003B0000868012262F301000860086862F38300A4
:1003C0000860086862F305100860086862F3871027
:1003D0000860086862F309200860086862F38B20EF
:1003E0000860086862F30D300860FFE700200290A3
:1003F000FFE70298092815DCFFE7029940F2404028
:10040000C0F60000405C1421C4F20201086044F20E
:100410004020C0F20F00FFF7ABFFFFE7029801306A
:100420000290E6E7E2E7F1EE100A4FF6FF71C0F244
:10043000C03120EA010040F04070E1EE100A704740
:100440007E306D79335B5F707F7B00005C04000859
:0C0450000000002060060000FC01000815
:0400000508000245A8
:00000001FF
