:020000040800F2
:10000000600600204902000851020008530200085F
:1000100055020008570200085902000800000000BD
:100020000000000000000000000000005B0200086B
:100030005D020008000000005F0200086102000885
:1000400063020008630200086302000863020008FC
:1000500063020008630200086302000863020008EC
:1000600063020008630200086302000863020008DC
:1000700063020008630200086302000863020008CC
:100080006302000863020008630200080000000029
:1000900000000000000000000000000063020008F3
:1000A000630200086302000863020008630200089C
:1000B000630200086302000863020008630200088C
:1000C000630200086302000863020008630200087C
:1000D00063020008630200086302000800000000D9
:1000E00063020008630200086302000800000000C9
:1000F0000000000000000000000000006302000893
:1001000000000000630200086302000863020008A8
:1001100000000000000000000000000000000000DF
:10012000630200086302000863020008630200081B
:100130006302000800000000000000000000000052
:100140000000000000000000000000006302000842
:1001500063020008630200086302000863020008EB
:1001600063020008630200080000000000000000B5
:10017000000000000000000000000000000000007F
:100180000000000063020008000000000000000002
:10019000630200086302000800F002F800F044F86F
:1001A00014A696E8000CB244B344DA4501D100F03D
:1001B0003BF8BAE80F000FA696E83000A5EB04055F
:1001C00004EB0607AAEB0704A7F101074FEA151590
:1001D0004FEA3414A4F10104AC4201D300F024F836
:1001E00013F0010F18BFFB1A43F0010300F001F8F0
:1001F000DBE71847F8010000080200007047000024
:100200000023002400250026103A28BF78C1FBD81F
:10021000520728BF30C148BF0B6070471FB500F0C0
:10022000D8F81FBD10B510BD00F031F81146FFF72A
:10023000F5FF00F0ABF800F04FF803B4FFF7F2FF62
:1002400003BC00F057F80000094880470948004700
:10025000FEE7FEE7FEE7FEE7FEE7FEE7FEE7FEE776
:10026000FEE7FEE704480549054A064B70470000D3
:1002700005030008990100086000002060060020C6
:10028000600200206002002070477047704775468A
:1002900000F02CF8AE4605006946534620F00700F2
:1002A000854618B020B5FFF7DDFFBDE820404FF0D0
:1002B00000064FF000074FF000084FF0000BAC466F
:1002C000ACE8C009ACE8C009ACE8C009ACE8C009BA
:1002D00021F007018D46704710B50446AFF300804A
:1002E0002046BDE81040FFF7A8BF00000048704757
:1002F0000000002001491820ABBEFEE726000200E6
:10030000704700004EF68851CEF20001086840F4B4
:100310007000086043F60002C4F20202106840F068
:100320000100106043F60801C4F2020100200860D9
:1003300011684FF6FF73CFF6F6631940116043F66C
:100340000403C4F2020343F21001C2F20041196037
:10035000116821F48021116043F60C01C4F20201FE
:1003600008604EF60851CEF200014FF000600860C0
:100370007047000081B00090FFE70098411E009197
:1003800008B1FFE7F9E701B07047000080B582B01F
:100390000020019043F63002C4F20202116841F0DD
:1003A000010111600021C4F202010860086840F4F4
:1003B00080600860FFE71421C4F20201086880F041
:1003C0002000086044F24020C0F20F00FFF7D2FF87
:1003D000F1E7F1EE100A4FF6FF71C0F2C03120EAEA
:1003E000010040F04070E1EE100A7047FC03000885
:0C03F00000000020600600000002000871
:0400000508000249A4
:00000001FF
